:100000000C942A000C94570F0C948A0F0C94BD0F7B
:100010000C9447000C9447000C9447000C94470044
:100020000C9447000C9447000C9447000C94470034
:100030000C9447000C9447000C9447000C94470024
:100040000C9447000C9447000C9447000C94470014
:100050000C94470011241FBECFE5D8E0DEBFCDBF12
:1000600010E0A0E6B0E0ECECF3E302C005900D92E6
:10007000A63EB107D9F710E0A6EEB0E001C01D9290
:10008000AD3EB107E1F70E94E3120C94E4190C9421
:100090000000EF92FF920F931F937B018C0120E0F1
:1000A00030E040E05FE40E94490388238CF0C801FF
:1000B000B70120E030E040E05FE40E94C1010E940F
:1000C000A9039B01AC01205030404040504806C07D
:1000D000C801B7010E94A9039B01AC01B901CA0183
:1000E0001F910F91FF90EF900895A0E0B0E0EBE733
:1000F000F0E00C94AD19DC012B01FA019C919230D7
:1001000008F439C1EB018881823008F433C194309E
:1001100069F4843009F02FC111969C91119789815F
:10012000981709F428C1ACEBB0E025C1843009F47C
:1001300021C18230A9F4923009F01DC19A01AD01AC
:1001400088E0EA010990AE01E90109929E0181501F
:10015000C1F7E201898111969C918923818308C1AD
:10016000923009F407C112962D903C901397EB0141
:100170008A819B811496AD90BD90CD90DC901797AD
:10018000EC80FD800E811F819101281B390BB90184
:1001900037FF04C066277727621B730B6032710537
:1001A0000CF061C0121613066CF537014801062EDB
:1001B00004C096948794779467940A94D2F721E0C8
:1001C00030E040E050E004C0220F331F441F551FB1
:1001D0006A95D2F721503040404050402E213F21B7
:1001E00040235123211531054105510521F021E01E
:1001F00030E040E050E079018A01E628F72808293C
:1002000019293CC0232BD1F1260E371E350146019A
:10021000062E04C096948794779467940A94D2F734
:1002200021E030E040E050E004C0220F331F441FC3
:10023000551F6A95D2F721503040404050402A2146
:100240003B214C215D21211531054105510521F04E
:1002500021E030E040E050E059016A01A628B728CB
:10026000C828D9280BC0821593052CF01C01AA249C
:10027000BB24650103C0EE24FF24870111969C91E5
:10028000D20111968C91981709F445C0992339F041
:10029000A80197012A193B094C095D0906C0A6016E
:1002A00095012E193F09400B510B57FD08C01182D3
:1002B0003382228224833583468357831DC081E0A5
:1002C00081833382228288279927DC01821B930B4A
:1002D000A40BB50B84839583A683B7830DC0220F2F
:1002E000331F441F551F24833583468357838281E0
:1002F000938101979383828324813581468157813D
:10030000DA01C9010197A109B1098F5F9F4FAF4F72
:10031000BF4328F30BC0918333822282EA0CFB1C7B
:100320000C1D1D1DE482F5820683178383E0808304
:10033000248135814681578157FF1AC0C901AA27F8
:1003400097FDA095BA2F81709070A070B0705695EF
:10035000479537952795822B932BA42BB52B848318
:100360009583A683B7838281938101969383828349
:10037000DF0101C0D201CD01CDB7DEB7E2E10C94BF
:10038000C919A0E2B0E0E7ECF1E00C94B919698377
:100390007A838B839C832D833E834F835887E9E048
:1003A000EE2EF12CEC0EFD1ECE010196B7010E943F
:1003B000D2048E010F5E1F4FCE010596B8010E9438
:1003C000D2048A8991E089278A8BC701B801AE01DE
:1003D000475E5F4F0E9475000E94FD03A096E6E015
:1003E0000C94D519A0E2B0E0E8EFF1E00C94B91953
:1003F00069837A838B839C832D833E834F835887C5
:10040000F9E0EF2EF12CEC0EFD1ECE010196B701A6
:100410000E94D2048E010F5E1F4FCE010596B801D7
:100420000E94D204C701B801AE01475E5F4F0E942F
:1004300075000E94FD03A096E6E00C94D519A0E299
:10044000B0E0E5E2F2E00C94AD1969837A838B8326
:100450009C832D833E834F835887CE010196BE0136
:10046000675F7F4F0E94D204CE010596BE016F5E8A
:100470007F4F0E94D2049985923088F0898982301A
:10048000C8F0943019F4823051F404C0843029F457
:10049000923081F48CEB90E0C6C0923049F420E0B9
:1004A0009A858A89981321E02A87CE010996BBC0D4
:1004B000823049F420E09A858A89981321E02A8BBA
:1004C000CE014196B0C02D843E844F8458886D88FB
:1004D0007E888F88988CEE24FF248701AA24BB2471
:1004E000650140E050E060E070E0E0E0F0E0C10174
:1004F00081709070892BE9F0E60CF71C081D191D1E
:100500009A01AB012A0D3B1D4C1D5D1D80E090E062
:10051000A0E0B0E0E614F7040805190520F481E036
:1005200090E0A0E0B0E0BA01A901480F591F6A1F8E
:100530007B1FAA0CBB1CCC1CDD1C97FE08C081E0F5
:1005400090E0A0E0B0E0A82AB92ACA2ADB2A3196B6
:10055000E032F10549F0660C771C881C991C569412
:10056000479437942794C3CFFA85EA892B893C892D
:100570008B859C85280F391F2E5F3F4F17C0CA01FE
:1005800081709070892B61F016950795F794E79428
:1005900080E090E0A0E0B0E8E82AF92A0A2B1B2BC3
:1005A00076956795579547952F5F3F4F77FDE7CF36
:1005B0000CC0440F551F661F771F17FD4160EE0CDE
:1005C000FF1C001F111F21503040403090E05907A0
:1005D00090E0690790E4790760F32B8F3C8FDB0193
:1005E000CA018F779070A070B07080349105A1051A
:1005F000B10561F447FD0AC0E114F10401051105DC
:1006000029F0405C5F4F6F4F7F4F40781A8EFE1786
:1006100011F081E08A8F4D8F5E8F6F8F78A383E01A
:10062000898FCE0149960E94FD03A096E2E10C94C9
:10063000C919A8E1B0E0EFE1F3E00C94B9196983BE
:100640007A838B839C832D833E834F83588789E0F5
:10065000E82EF12CEC0EFD1ECE010196B7010E9492
:10066000D2048E010F5E1F4FCE010596B8010E9485
:10067000D2048985823040F08989823028F0C70110
:10068000B8010E944A0501C08FEF6896E6E00C941D
:10069000D519A8E1B0E0EFE4F3E00C94B91969834F
:1006A0007A838B839C832D833E834F83588789E095
:1006B000E82EF12CEC0EFD1ECE010196B7010E9432
:1006C000D2048E010F5E1F4FCE010596B8010E9425
:1006D000D2048985823040F08989823028F0C701B0
:1006E000B8010E944A0501C08FEF6896E6E00C94BD
:1006F000D519A8E1B0E0EFE7F3E00C94B9196983EC
:100700007A838B839C832D833E834F83588789E034
:10071000E82EF12CEC0EFD1ECE010196B7010E94D1
:10072000D2048E010F5E1F4FCE010596B8010E94C4
:10073000D2048985823040F08989823028F0C7014F
:10074000B8010E944A0501C081E06896E6E00C9479
:10075000D519ACE0B0E0EFEAF3E00C94BD19698381
:100760007A838B839C83CE010196BE016B5F7F4FA2
:100770000E94D2048D81823061F1823050F1843048
:1007800021F48E81882351F12EC02F81388537FDC9
:1007900020C06E812F3131051CF06623F9F023C093
:1007A0008EE190E0821B930B29853A854B855C8511
:1007B00004C056954795379527958A95D2F76623B5
:1007C000B1F050954095309521953F4F4F4F5F4F79
:1007D0000EC020E030E040E050E009C02FEF3FEFD6
:1007E0004FEF5FE704C020E030E040E050E8B9019F
:1007F000CA012C96E2E00C94D919DF92EF92FF9295
:100800000F931F93FC01E480F58006811781D1804E
:100810008081823048F480E090E0A0E1B0E0E82AF6
:10082000F92A0A2B1B2BA5C0843009F49FC0823003
:1008300021F4EE24FF24870105C0E114F104010531
:10084000110519F4E0E0F0E096C0628173819FEF3A
:10085000623879070CF05BC022E83FEF261B370BAC
:100860002A3131052CF020E030E040E050E02AC091
:10087000B801A701022E04C0769567955795479554
:100880000A94D2F781E090E0A0E0B0E004C0880FC5
:10089000991FAA1FBB1F2A95D2F70197A109B10979
:1008A0008E219F21A023B1230097A105B10521F03E
:1008B00081E090E0A0E0B0E09A01AB01282B392B59
:1008C0004A2B5B2BDA01C9018F779070A070B07052
:1008D00080349105A105B10539F427FF09C0205CDA
:1008E0003F4F4F4F5F4F04C0215C3F4F4F4F5F4F13
:1008F000E0E0F0E02030A0E03A07A0E04A07A0E402
:100900005A0710F0E1E0F0E079018A0127C0603871
:10091000710564F5FB01E158FF4FD801C7018F77DE
:100920009070A070B07080349105A105B10539F4C4
:10093000E7FE0DC080E490E0A0E0B0E004C08FE3EB
:1009400090E0A0E0B0E0E80EF91E0A1F1B1F17FFA1
:1009500005C016950795F794E794319687E01695AC
:100960000795F794E7948A95D1F705C0EE24FF2404
:100970008701EFEFF0E06E2F679566276795902F60
:100980009F77D794DD24D7948E2F8695492F462BB9
:10099000582F5D29B701CA011F910F91FF90EF9069
:1009A000DF900895FC01DB01408151812281622F9B
:1009B0006F7770E0221F2227221F9381892F880FD3
:1009C000822B282F30E0991F9927991F11969C930D
:1009D000119721153105A9F54115510561057105DD
:1009E00011F482E037C082E89FEF13969C938E93B8
:1009F00012979A01AB0167E0220F331F441F551F66
:100A00006A95D1F783E08C930DC0220F331F441FEA
:100A1000551F12968D919C911397019713969C9355
:100A20008E931297203080E0380780E0480780E4FA
:100A3000580758F314962D933D934D935C93179755
:100A400008952F3F310579F4411551056105710570
:100A500019F484E08C93089564FF03C081E08C93C3
:100A600012C01C9210C02F57304013963C932E9307
:100A7000129783E08C9387E0440F551F661F771F02
:100A80008A95D1F7706414964D935D936D937C9322
:100A9000179708951F93DC01FB019C91923008F495
:100AA00047C08081823008F443C0943051F41196DD
:100AB0001C91843099F58181682F70E0611B710968
:100AC0003FC0843021F0923031F48230B9F181811D
:100AD000882389F12DC011961C9111978230F1F075
:100AE00081811817D9F412962D913C911397828128
:100AF00093818217930794F028173907BCF0149656
:100B00008D919D910D90BC91A02D248135814681C0
:100B10005781281739074A075B0718F4112341F05A
:100B20000AC082179307A407B50740F4112319F0F0
:100B300061E070E005C06FEF7FEF02C060E070E041
:100B4000CB011F910895DF93CF930F92CDB7DEB7FE
:100B500089838981982F917080E063E0492F0E94FA
:100B6000A10A89818695982F917080E064E0492FD1
:100B70000E94A10A898186958695982F917080E0C0
:100B800065E0492F0E94A10A898186958695869500
:100B9000982F917080E066E0492F0E94A10A0F9083
:100BA000CF91DF910895DF93CF93CDB7DEB72E9726
:100BB0000FB6F894DEBF0FBECDBF80E062E041E02B
:100BC0000E94A10A80E090E0A0E0B0E48B879C87BF
:100BD000AD87BE876B857C858D859E8520E030E066
:100BE0004AE755E40E941F02DC01CB018F839887FE
:100BF000A987BA876F81788589859A8520E030E05A
:100C000040E85FE30E94790388232CF481E090E0C0
:100C10009E838D833FC06F81788589859A8520E08A
:100C20003FEF4FE757E40E94190318164CF56B8508
:100C30007C858D859E8520E030E040E251E40E9475
:100C40001F02DC01CB01BC01CD010E944900DC0187
:100C5000CB019E838D830FC080E991E09C838B83C1
:100C60008B819C810197F1F79C838B838D819E8181
:100C700001979E838D838D819E81009769F714C0B3
:100C80006F81788589859A850E944900DC01CB01B6
:100C90009E838D838D819E819A83898389819A81A8
:100CA0000197F1F79A83898380E062E040E00E9437
:100CB000A10A2E960FB6F894DEBF0FBECDBFCF911E
:100CC000DF910895DF93CF930F92CDB7DEB789837D
:100CD00080E061E040E00E94A10A898182958F70E6
:100CE0000E94A3050E94D30589810E94A3050E944A
:100CF000D3050F90CF91DF910895DF93CF930F929B
:100D0000CDB7DEB7898380E061E041E00E94A10AAF
:100D1000898182958F700E94A3050E94D3058981E5
:100D20000E94A3050E94D3050F90CF91DF910895F3
:100D3000DF93CF93CDB7DEB72E970FB6F894DEBF13
:100D40000FBECDBF80E090E0A0E2B2E48B879C872D
:100D5000AD87BE876B857C858D859E8520E030E0E4
:100D60004AE755E40E941F02DC01CB018F8398877C
:100D7000A987BA876F81788589859A8520E030E0D8
:100D800040E85FE30E94790388232CF481E090E03F
:100D90009E838D833FC06F81788589859A8520E009
:100DA0003FEF4FE757E40E94190318164CF56B8587
:100DB0007C858D859E8520E030E040E251E40E94F4
:100DC0001F02DC01CB01BC01CD010E944900DC0106
:100DD000CB019E838D830FC080E991E09C838B8340
:100DE0008B819C810197F1F79C838B838D819E8100
:100DF00001979E838D838D819E81009769F714C032
:100E00006F81788589859A850E944900DC01CB0134
:100E10009E838D838D819E819A83898389819A8126
:100E20000197F1F79A83898382E00E94A3050E94CB
:100E3000D30582E00E94A3050E94D30588E00E94AA
:100E4000A3050E94D3058CE00E94620681E00E9407
:100E500062062E960FB6F894DEBF0FBECDBFCF91BF
:100E6000DF910895DF93CF9300D000D0CDB7DEB7E8
:100E70009C838B831A828B819C810097E1F019827D
:100E80000EC08981282F30E08B819C81FC01E20F0C
:100E9000F31F80810E947D0689818F5F898389810C
:100EA000282F30E08B819C81FC01E20FF31F8081B1
:100EB000882339F702C082E08A838A810F900F90DD
:100EC0000F900F90CF91DF910895DF93CF93CDB71F
:100ED000DEB761970FB6F894DEBF0FBECDBF6E8749
:100EE0007F87888B998B1A828E859F85A889B9897F
:100EF0000097A105B10521F480E30E947D0667C03B
:100F00008E859F85A889B989BB230CF043C08E8547
:100F10009F85A889B989B095A095909581959F4F97
:100F2000AF4FBF4F8E879F87A88BB98B8DE20E94F2
:100F30007D0630C08E859F85A889B9892AE030E07A
:100F400040E050E0BC01CD010E947019DC01CB01F2
:100F50008B838E859F85A889B9892AE030E040E09F
:100F600050E0BC01CD010E949219DA01C9018E87BF
:100F70009F87A88BB98B8A81282F30E08B81482FDF
:100F8000405DCE010496FC01E20FF31F40838A818D
:100F90008F5F8A838E859F85A889B9890097A1056F
:100FA000B10541F68A81815089830EC08981282F3D
:100FB00030E0CE010496FC01E20FF31F80810E9415
:100FC0007D06898181508983898188237CF7619698
:100FD0000FB6F894DEBF0FBECDBFCF91DF9108955D
:100FE000DF93CF9300D00F92CDB7DEB78A836B83A8
:100FF0008B81882319F48A81898306C08B81813093
:1010000019F48A81805C89838981806889838981D8
:101010000E9462060F900F900F90CF91DF9108957C
:10102000DF93CF93CDB7DEB728970FB6F894DEBF26
:101030000FBECDBF8C837E836D834F8328871B8239
:101040008D819E81009759F18C81882F90E0880FC7
:10105000991F880F991F880F991F89838981806440
:10106000898389810E9462061A820EC08A81282F94
:1010700030E08D819E81FC01E20FF31F80810E9490
:101080007D068A818F5F8A838A81883078F38F8199
:1010900068850E94F0078C810E947D0602C082E074
:1010A0008B838B8128960FB6F894DEBF0FBECDBF21
:1010B000CF91DF910895DF93CF93CDB7DEB72E9711
:1010C0000FB6F894DEBF0FBECDBF82E066E040E011
:1010D0000E94A10A80E090E0A0EAB1E48B879C879F
:1010E000AD87BE876B857C858D859E8520E030E051
:1010F0004AE755E40E941F02DC01CB018F839887E9
:10110000A987BA876F81788589859A8520E030E044
:1011100040E85FE30E94790388232CF481E090E0AB
:101120009E838D833FC06F81788589859A8520E075
:101130003FEF4FE757E40E94190318164CF56B85F3
:101140007C858D859E8520E030E040E251E40E9460
:101150001F02DC01CB01BC01CD010E944900DC0172
:10116000CB019E838D830FC080E991E09C838B83AC
:101170008B819C810197F1F79C838B838D819E816C
:1011800001979E838D838D819E81009769F714C09E
:101190006F81788589859A850E944900DC01CB01A1
:1011A0009E838D838D819E819A83898389819A8193
:1011B0000197F1F79A83898382E067E041E00E941A
:1011C000A10A2E960FB6F894DEBF0FBECDBFCF9109
:1011D000DF910895DF93CF93CDB7DEB72E970FB68B
:1011E000F894DEBF0FBECDBF82E067E040E00E9412
:1011F000A10A80E090E0A0EAB1E48B879C87AD87EC
:10120000BE876B857C858D859E8520E030E04AE732
:1012100055E40E941F02DC01CB018F839887A987C8
:10122000BA876F81788589859A8520E030E040E82B
:101230005FE30E94790388232CF481E090E09E8391
:101240008D833FC06F81788589859A8520E03FEF47
:101250004FE757E40E94190318164CF56B857C85FF
:101260008D859E8520E030E040E251E40E941F021F
:10127000DC01CB01BC01CD010E944900DC01CB01A6
:101280009E838D830FC080E991E09C838B838B814B
:101290009C810197F1F79C838B838D819E810197BF
:1012A0009E838D838D819E81009769F714C06F8125
:1012B000788589859A850E944900DC01CB019E834F
:1012C0008D838D819E819A83898389819A810197FB
:1012D000F1F79A83898382E066E040E00E94A10AE8
:1012E00082E066E041E00E94A10A2E960FB6F894D3
:1012F000DEBF0FBECDBFCF91DF910895DF93CF93B7
:10130000CDB7DEB782E066E040E00E94A10A82E04D
:1013100067E040E00E94A10ACF91DF910895DF933A
:10132000CF93CDB7DEB728970FB6F894DEBF0FBEC8
:10133000CDBF8A836B834C8319828B81883008F000
:10134000F4C08C81882309F077C08A81282F30E08F
:1013500038872F838F8198858130910559F12F81AE
:101360003885223031052CF48F819885009769F0FB
:1013700060C02F8138852230310589F18F819885B1
:101380008330910509F440C054C0AAE3B0E0EAE319
:10139000F0E08081482F8B81282F30E081E090E0C1
:1013A000022E02C0880F991F0A94E2F780958423C9
:1013B0008C93BDC0A7E3B0E0E7E3F0E08081482F65
:1013C0008B81282F30E081E090E0022E02C0880F50
:1013D000991F0A94E2F7809584238C93A8C0A4E314
:1013E000B0E0E4E3F0E08081482F8B81282F30E0EB
:1013F00081E090E0022E02C0880F991F0A94E2F764
:10140000809584238C9393C0A1E3B0E0E1E3F0E006
:101410008081482F8B81282F30E081E090E0022EE0
:1014200002C0880F991F0A94E2F7809584238C9359
:101430007EC081E089837BC08C81813009F072C0DD
:101440008A81282F30E03E832D838D819E818130DB
:10145000910549F12D813E81223031052CF48D8199
:101460009E81009761F05BC02D813E812230310565
:1014700071F18D819E8183309105E9F150C0AAE31D
:10148000B0E0EAE3F0E08081482F8B81282F30E044
:1014900081E090E0022E02C0880F991F0A94E2F7C3
:1014A000842B8C9344C0A7E3B0E0E7E3F0E08081B5
:1014B000482F8B81282F30E081E090E0022E02C07F
:1014C000880F991F0A94E2F7842B8C9330C0A4E311
:1014D000B0E0E4E3F0E08081482F8B81282F30E0FA
:1014E00081E090E0022E02C0880F991F0A94E2F773
:1014F000842B8C931CC0A1E3B0E0E1E3F0E0808199
:10150000482F8B81282F30E081E090E0022E02C02E
:10151000880F991F0A94E2F7842B8C9308C081E00E
:10152000898305C081E0898302C081E08983898144
:1015300028960FB6F894DEBF0FBECDBFCF91DF91D6
:101540000895DF93CF93CDB7DEB728970FB6F89401
:10155000DEBF0FBECDBF8A836B834C8319828B8124
:10156000883008F0F4C08C81882309F077C08A8124
:10157000282F30E038872F838F819885813091051F
:1015800059F12F813885223031052CF48F819885CF
:10159000009769F060C02F8138852230310589F1CC
:1015A0008F8198858330910509F440C054C0ABE326
:1015B000B0E0EBE3F0E08081482F8B81282F30E012
:1015C00081E090E0022E02C0880F991F0A94E2F792
:1015D000809584238C93BDC0A8E3B0E0E8E3F0E0FD
:1015E0008081482F8B81282F30E081E090E0022E0F
:1015F00002C0880F991F0A94E2F7809584238C9388
:10160000A8C0A5E3B0E0E5E3F0E08081482F8B813E
:10161000282F30E081E090E0022E02C0880F991F51
:101620000A94E2F7809584238C9393C0A2E3B0E000
:10163000E2E3F0E08081482F8B81282F30E081E0C9
:1016400090E0022E02C0880F991F0A94E2F780955D
:1016500084238C937EC081E089837BC08C81813020
:1016600009F072C08A81282F30E03E832D838D815E
:101670009E818130910549F12D813E8122303105D5
:101680002CF48D819E81009761F05BC02D813E819D
:101690002230310571F18D819E8183309105E9F110
:1016A00050C0ABE3B0E0EBE3F0E08081482F8B81EA
:1016B000282F30E081E090E0022E02C0880F991FB1
:1016C0000A94E2F7842B8C9344C0A8E3B0E0E8E3EB
:1016D000F0E08081482F8B81282F30E081E090E07E
:1016E000022E02C0880F991F0A94E2F7842B8C9374
:1016F00030C0A5E3B0E0E5E3F0E08081482F8B81C6
:10170000282F30E081E090E0022E02C0880F991F60
:101710000A94E2F7842B8C931CC0A2E3B0E0E2E3CE
:10172000F0E08081482F8B81282F30E081E090E02D
:10173000022E02C0880F991F0A94E2F7842B8C9323
:1017400008C081E0898305C081E0898302C081E00F
:101750008983898128960FB6F894DEBF0FBECDBF6E
:10176000CF91DF910895DF93CF93CDB7DEB7279761
:101770000FB6F894DEBF0FBECDBF8A836B835D8347
:101780004C8319828C819D81009709F47BC08B81E9
:10179000883008F074C08A81282F30E03F832E8380
:1017A0004E815F814130510559F18E819F81823098
:1017B000910534F42E813F812115310569F05CC01B
:1017C0004E815F814230510579F18E819F81833056
:1017D000910509F43DC050C0E9E3F0E08081282F75
:1017E00030E08B81882F90E0A90102C05595479584
:1017F0008A95E2F7CA018170EC81FD81808344C043
:10180000E6E3F0E08081282F30E08B81882F90E0A4
:10181000A90102C0559547958A95E2F7CA018170E2
:10182000EC81FD81808330C0E3E3F0E08081282FEC
:1018300030E08B81882F90E0A90102C05595479533
:101840008A95E2F7CA018170EC81FD8180831CC01A
:10185000E0E3F0E08081282F30E08B81882F90E05A
:10186000A90102C0559547958A95E2F7CA01817092
:10187000EC81FD81808308C081E0898305C081E01F
:10188000898302C082E08983898127960FB6F89404
:10189000DEBF0FBECDBFCF91DF910895DF93CF9311
:1018A00000D000D00F92CDB7DEB78A836B83198248
:1018B0008A81282F30E03D832C838C819D8181306B
:1018C0009105D1F02C813D81223031052CF48C81A1
:1018D0009D81009761F01FC02C813D812230310530
:1018E00081F08C819D818330910581F014C0EAE301
:1018F000F0E08B81808311C0E7E3F0E08B8180838F
:101900000CC0E4E3F0E08B81808307C0E1E3F0E00A
:101910008B81808302C081E0898389810F900F9041
:101920000F900F900F90CF91DF910895DF93CF9399
:1019300000D000D00F92CDB7DEB78A836B831982B7
:101940008A81282F30E03D832C838C819D818130DA
:101950009105D1F02C813D81223031052CF48C8110
:101960009D81009761F01FC02C813D81223031059F
:1019700081F08C819D818330910581F014C0EBE36F
:10198000F0E08B81808311C0E8E3F0E08B818083FD
:101990000CC0E5E3F0E08B81808307C0E2E3F0E078
:1019A0008B81808302C081E0898389810F900F90B1
:1019B0000F900F900F90CF91DF910895DF93CF9309
:1019C00000D000D00F92CDB7DEB78A836B83198227
:1019D0008B81883008F072C08A81282F30E03D83E7
:1019E0002C838C819D818130910549F12C813D8131
:1019F000223031052CF48C819D81009761F05BC011
:101A00002C813D812230310571F18C819D818330A3
:101A10009105E9F150C0ABE3B0E0EBE3F0E0808189
:101A2000482F8B81282F30E081E090E0022E02C009
:101A3000880F991F0A94E2F784278C9341C0A8E38A
:101A4000B0E0E8E3F0E08081482F8B81282F30E080
:101A500081E090E0022E02C0880F991F0A94E2F7FD
:101A600084278C932DC0A5E3B0E0E5E3F0E080810E
:101A7000482F8B81282F30E081E090E0022E02C0B9
:101A8000880F991F0A94E2F784278C9319C0A2E368
:101A9000B0E0E2E3F0E08081482F8B81282F30E036
:101AA00081E090E0022E02C0880F991F0A94E2F7AD
:101AB00084278C9305C081E0898302C081E08983FB
:101AC00089810F900F900F900F900F90CF91DF9121
:101AD0000895DF93CF93CDB7DEB7A5E5B0E0E5E598
:101AE000F0E080818E7F8C93A5E5B0E0E5E5F0E045
:101AF000808182608C93A5E5B0E0E5E5F0E080812F
:101B00008B7F8C93A5E5B0E0E5E5F0E0808188600F
:101B10008C93A4E5B0E0E4E5F0E080818F7B8C93CA
:101B2000ABE5B0E0EBE5F0E0808180648C93ABE561
:101B3000B0E0EBE5F0E0808180688C93ABE5B0E04D
:101B4000EBE5F0E080818F7D8C93CF91DF9108955C
:101B5000DF93CF93CDB7DEB729970FB6F894DEBFEA
:101B60000FBECDBF8A836B8319828A81882309F0D7
:101B70005EC08B81282F30E039872887888599853A
:101B80008130910521F128853985223031052CF4E9
:101B900088859985009761F047C02885398522306E
:101BA000310599F18885998583309105F9F03CC01C
:101BB000A5E5B0E0E5E5F0E080818E7F8C93A5E5BA
:101BC000B0E0E5E5F0E080818D7F8C93C7C0A5E5AE
:101BD000B0E0E5E5F0E0808181608C93A5E5B0E0C0
:101BE000E5E5F0E080818D7F8C93B8C0A5E5B0E09D
:101BF000E5E5F0E080818E7F8C93A5E5B0E0E5E53A
:101C0000F0E0808182608C93A9C0A5E5B0E0E5E5B5
:101C1000F0E0808181608C93A5E5B0E0E5E5F0E03F
:101C2000808182608C939AC081E0898397C08A8189
:101C3000813009F05EC08B81282F30E03F832E83F6
:101C40008E819F818130910521F12E813F8122304B
:101C500031052CF48E819F81009761F047C02E8161
:101C60003F812230310599F18E819F81833091052A
:101C7000F9F03CC0A5E5B0E0E5E5F0E080818B7FC0
:101C80008C93A5E5B0E0E5E5F0E08081877F8C935B
:101C900065C0A5E5B0E0E5E5F0E0808184608C9367
:101CA000A5E5B0E0E5E5F0E08081877F8C9356C044
:101CB000A5E5B0E0E5E5F0E080818B7F8C93A5E5BC
:101CC000B0E0E5E5F0E0808188608C9347C0A5E551
:101CD000B0E0E5E5F0E0808184608C93A5E5B0E0BC
:101CE000E5E5F0E0808188608C9338C081E08983ED
:101CF00035C08A81823081F58B81282F30E03D8389
:101D00002C838C819D8182309105A1F02C813D81B5
:101D100023303105F1F4A5E5B0E0E5E5F0E08081A0
:101D20008B7F8C93A4E5B0E0E4E5F0E080818064F3
:101D30008C9314C0A5E5B0E0E5E5F0E08081846017
:101D40008C93A4E5B0E0E4E5F0E0808180648C93BE
:101D500005C081E0898302C081E089838981299659
:101D60000FB6F894DEBF0FBECDBFCF91DF910895BF
:101D7000DF93CF9300D000D0CDB7DEB78A8319822E
:101D80008A81282F30E03C832B838B819C8181309A
:101D9000910589F02B813C8122303105A1F08B81A6
:101DA0009C810097C1F4ABE5B0E0EBE5F0E0808109
:101DB00080648C9312C0ABE5B0E0EBE5F0E080818D
:101DC00080688C930AC0ABE5B0E0EBE5F0E0808181
:101DD00080628C9302C081E0898389810F900F908B
:101DE0000F900F90CF91DF910895DF93CF9300D0A4
:101DF00000D0CDB7DEB78A8319828A81282F30E0E0
:101E00003C832B838B819C818130910589F02B81D0
:101E10003C8122303105A1F08B819C810097C1F477
:101E2000ABE5B0E0EBE5F0E080818F7B8C9312C0F6
:101E3000ABE5B0E0EBE5F0E080818F778C930AC0F2
:101E4000ABE5B0E0EBE5F0E080818F7D8C9302C0E4
:101E500081E0898389810F900F900F900F90CF912F
:101E6000DF910895DF93CF9300D000D0CDB7DEB7D8
:101E70008A837C836B8319828B819C81009769F0B4
:101E80008A81882F90E0880F991FFC01EA51FF4F4B
:101E90008B819C819183808302C082E089838981C8
:101EA0000F900F900F900F90CF91DF9108951F9298
:101EB0000F920FB60F9211242F933F934F935F937E
:101EC0006F937F938F939F93AF93BF93EF93FF9302
:101ED000DF93CF93CDB7DEB78091E6009091E70016
:101EE000009729F0E091E600F091E7000995CF9185
:101EF000DF91FF91EF91BF91AF919F918F917F9172
:101F00006F915F914F913F912F910F900FBE0F9066
:101F10001F9018951F920F920FB60F9211242F93B6
:101F20003F934F935F936F937F938F939F93AF9361
:101F3000BF93EF93FF93DF93CF93CDB7DEB780913D
:101F4000E8009091E900009729F0E091E800F09115
:101F5000E9000995CF91DF91FF91EF91BF91AF918A
:101F60009F918F917F916F915F914F913F912F91B1
:101F70000F900FBE0F901F9018951F920F920FB6E3
:101F80000F9211242F933F934F935F936F937F93FF
:101F90008F939F93AF93BF93EF93FF93DF93CF9371
:101FA000CDB7DEB78091EA009091EB00009729F061
:101FB000E091EA00F091EB000995CF91DF91FF915C
:101FC000EF91BF91AF919F918F917F916F915F91B1
:101FD0004F913F912F910F900FBE0F901F9018952A
:101FE000DF93CF93CDB7DEB77894CF91DF9108958B
:101FF000DF93CF93CDB7DEB7F894CF91DF910895FB
:10200000DF93CF93CDB7DEB782E063E040E00E947C
:10201000A10A82E064E041E00E94A10ACF91DF9131
:102020000895DF93CF93CDB7DEB72E970FB6F89410
:10203000DEBF0FBECDBF82E064E040E00E94A10A97
:1020400082E063E040E00E94A10A80E090E0AAE71D
:10205000B4E48B879C87AD87BE876B857C858D8537
:102060009E8520E030E04AE755E40E941F02DC0133
:10207000CB018F839887A987BA876F8178858985F7
:102080009A8520E030E040E85FE30E9479038823EE
:102090002CF481E090E09E838D833FC06F81788532
:1020A00089859A8520E03FEF4FE757E40E941903A6
:1020B00018164CF56B857C858D859E8520E030E07B
:1020C00040E251E40E941F02DC01CB01BC01CD01C2
:1020D0000E944900DC01CB019E838D830FC080E903
:1020E00091E09C838B838B819C810197F1F79C838A
:1020F0008B838D819E8101979E838D838D819E81AF
:10210000009769F714C06F81788589859A850E9448
:102110004900DC01CB019E838D838D819E819A8352
:10212000898389819A810197F1F79A83898382E073
:1021300063E041E00E94A10A2E960FB6F894DEBF3C
:102140000FBECDBFCF91DF910895DF93CF93CDB771
:10215000DEB782E063E040E00E94A10A82E064E032
:1021600040E00E94A10ACF91DF910895DF93CF93C1
:10217000CDB7DEB7A2970FB6F894DEBF0FBECDBFC6
:102180008FEF898384E08D8385E08E8386E08F8363
:1021900087E0888782E0898783E08A8784E08B876D
:1021A00085E08C87CE010D969F8F8E8FE6EDF0E057
:1021B000F9A3E8A3F0E1FAA3E8A1F9A1008088A1BE
:1021C00099A1019699A388A3EE8DFF8D00828E8D33
:1021D0009F8D01969F8F8E8F9AA191509AA3EAA10D
:1021E000EE2351F71B8268C08B81282F30E0CE018F
:1021F0000996FC01E20FF31F908183E0692F40E014
:102200000E94A10A1A8243C08A81282F30E0CE01A1
:102210000596FC01E20FF31F90819E012C5F3F4F5A
:1022200081E0692FA9010E94B30B8C81882361F59D
:102230008A81282F30E08B81482F50E0220F331FF6
:10224000220F331FCE010196820F931F840F951F1B
:10225000FC013C968081898311C08A81282F30E05F
:10226000CE010596FC01E20FF31F90819E012C5FC9
:102270003F4F81E0692FA9010E94B30B8C81882315
:1022800061F3F981FD8F1EC08A818F5F8A838A8105
:10229000843008F4B9CF8B81282F30E0CE01099625
:1022A000FC01E20FF31F908183E0692F41E00E945F
:1022B000A10A8B818F5F8B838B81843008F494CF4C
:1022C00089818D8F8D8DA2960FB6F894DEBF0FBEDB
:1022D000CDBFCF91DF910895DF93CF93CDB7DEB718
:1022E000EAE3F0E08FEF8083E7E3F0E01082E4E3DD
:1022F000F0E08FEF8083E1E3F0E08CE38083EBE3B9
:10230000F0E01082E8E3F0E084EF8083E5E3F0E0C2
:102310001082E2E3F0E08CE38083CF91DF910895B7
:10232000DF93CF93CDB7DEB72F970FB6F894DEBF0C
:102330000FBECDBF1F8690C084E060E00E94F00712
:1023400080E690E00E94320724EC30E080E0B901A2
:102350004F8521E00E9410082DEC30E080E0B901AB
:102360004F8521E00E94100880E090E0A8ECB2E4E4
:102370008B879C87AD87BE876B857C858D859E8589
:1023800020E030E04AE755E40E941F02DC01CB0167
:102390008F839887A987BA876F81788589859A8581
:1023A00020E030E040E85FE30E94790388232CF4CA
:1023B00081E090E09E838D833FC06F817885898521
:1023C0009A8520E03FEF4FE757E40E941903181663
:1023D0004CF56B857C858D859E8520E030E040E264
:1023E00051E40E941F02DC01CB01BC01CD010E941F
:1023F0004900DC01CB019E838D830FC080E991E011
:102400009C838B838B819C810197F1F79C838B83C9
:102410008D819E8101979E838D838D819E81009702
:1024200069F714C06F81788589859A850E94490073
:10243000DC01CB019E838D838D819E819A8389836C
:1024400089819A810197F1F79A83898381E00E94BB
:1024500062068F858F5F8F878F85803108F46CCF00
:102460002F960FB6F894DEBF0FBECDBFCF91DF9190
:102470000895DF93CF93CDB7DEB72F970FB6F894BB
:10248000DEBF0FBECDBF80E18F8790C084E060E0EB
:102490000E94F0078AE690E00E94320724EC30E0C8
:1024A00080E0B9014F8521E00E9410082DEC30E05A
:1024B00080E0B9014F8521E00E94100880E090E0A3
:1024C000A8ECB2E48B879C87AD87BE876B857C8543
:1024D0008D859E8520E030E04AE755E40E941F028A
:1024E000DC01CB018F839887A987BA876F817885B4
:1024F00089859A8520E030E040E85FE30E94790317
:1025000088232CF481E090E09E838D833FC06F810F
:10251000788589859A8520E03FEF4FE757E40E9450
:10252000190318164CF56B857C858D859E8520E0FA
:1025300030E040E251E40E941F02DC01CB01BC010B
:10254000CD010E944900DC01CB019E838D830FC029
:1025500080E991E09C838B838B819C810197F1F7CB
:102560009C838B838D819E8101979E838D838D813A
:102570009E81009769F714C06F81788589859A8557
:102580000E944900DC01CB019E838D838D819E8159
:102590009A83898389819A810197F1F79A83898344
:1025A00081E00E9462068F8581508F878F858830F9
:1025B00008F06CCF2F960FB6F894DEBF0FBECDBFDC
:1025C000CF91DF9108950F931F93DF93CF93CDB7F2
:1025D000DEB7C358D0400FB6F894DEBF0FBECDBFF4
:1025E000FE01EF57FF4F11821082FE01E058FF4FAE
:1025F00081E08083FE01E158FF4F10820E947E0936
:102600000E946C110E9498060E94690D0E94F00FB2
:1026100026E639E182E0B9010E94320F82E00E9491
:10262000B80E8091EC008130C9F782E00E94F50E6F
:102630000E94901184E790E00E94320781E061E0FF
:102640000E94F007FE01E558FF4F80E090E0A8EC03
:10265000B2E480839183A283B3838E0109581F4F14
:10266000FE01E558FF4F608171818281938120E0F6
:1026700030E04AE755E40E941F02DC01CB01F8017B
:1026800080839183A283B383FE01E958FF4F608169
:1026900071818281938120E030E040E85FE30E9415
:1026A0007903882344F4FE01EB58FF4F81E090E06A
:1026B0009183808364C0FE01E958FF4F608171817E
:1026C0008281938120E03FEF4FE757E40E94190396
:1026D00018160CF043C0FE01E558FF4F6081718170
:1026E0008281938120E030E040E251E40E941F02A9
:1026F000DC01CB018E010B581F4FBC01CD010E94A4
:102700004900DC01CB01F801918380831FC0FE01E9
:10271000ED58FF4F80E991E091838083FE01ED58F1
:10272000FF4F808191810197F1F7FE01ED58FF4F36
:1027300091838083DE01AB58BF4FFE01EB58FF4F02
:1027400080819181019711969C938E93FE01EB58A5
:10275000FF4F808191810097D1F627C08E010B58E1
:102760001F4FFE01E958FF4F608171818281938183
:102770000E944900DC01CB01F80191838083DE01D6
:10278000AF58BF4FFE01EB58FF4F808191818D9371
:102790009C93FE01EF58FF4F808191810197F1F7E3
:1027A000FE01EF58FF4F918380830E94B610FE0117
:1027B000ED57FF4F8083FE01ED57FF4F80818F3F24
:1027C000A1F3FE01ED57FF4F80818D3309F001C366
:1027D00081E061E00E94F00784E890E00E94320707
:1027E000FE01E359FF4F80E090E0AAE7B4E4808364
:1027F0009183A283B3838E0107591F4FFE01E359D2
:10280000FF4F608171818281938120E030E04AE74F
:1028100055E40E941F02DC01CB01F8018083918303
:10282000A283B383FE01E759FF4F608171818281EA
:10283000938120E030E040E85FE30E947903882341
:1028400044F4FE01E959FF4F81E090E091838083D9
:1028500064C0FE01E759FF4F6081718182819381DD
:1028600020E03FEF4FE757E40E94190318160CF0E1
:1028700043C0FE01E359FF4F6081718182819381E2
:1028800020E030E040E251E40E941F02DC01CB0175
:102890008E0109591F4FBC01CD010E944900DC0186
:1028A000CB01F801918380831FC0FE01EB59FF4FDC
:1028B00080E991E091838083FE01EB59FF4F808195
:1028C00091810197F1F7FE01EB59FF4F91838083CE
:1028D000DE01A959BF4FFE01E959FF4F8081918167
:1028E000019711969C938E93FE01E959FF4F8081C9
:1028F00091810097D1F628C08E0109591F4FFE0122
:10290000E759FF4F60817181828193810E94490064
:10291000DC01CB01F80191838083DE01AD59BF4F0B
:10292000FE01E959FF4F8081918111969C938E930E
:10293000FE01ED59FF4F808191810197F1F7FE0172
:10294000ED59FF4F91838083FE01EF57FF4F808148
:1029500091818B37910509F08AC182E061E040E006
:102960000E94A10AFE01E15AFF4F80E090E0AAE731
:10297000B4E480839183A283B3838E01055A1F4FF1
:10298000FE01E15AFF4F608171818281938120E0D5
:1029900030E04AE755E40E941F02DC01CB01F80158
:1029A00080839183A283B383FE01E55AFF4F608148
:1029B00071818281938120E030E040E85FE30E94F2
:1029C0007903882344F4FE01E75AFF4F81E090E049
:1029D0009183808364C0FE01E55AFF4F608171815D
:1029E0008281938120E03FEF4FE757E40E94190373
:1029F00018160CF043C0FE01E15AFF4F608171814F
:102A00008281938120E030E040E251E40E941F0285
:102A1000DC01CB018E01075A1F4FBC01CD010E9482
:102A20004900DC01CB01F801918380831FC0FE01C6
:102A3000E95AFF4F80E991E091838083FE01E95AD2
:102A4000FF4F808191810197F1F7FE01E95AFF4F15
:102A500091838083DE01A75ABF4FFE01E75AFF4FE3
:102A600080819181019711969C938E93FE01E75A84
:102A7000FF4F808191810097D1F627C08E01075AC0
:102A80001F4FFE01E55AFF4F608171818281938162
:102A90000E944900DC01CB01F80191838083DE01B3
:102AA000AB5ABF4FFE01E75AFF4F808191818D9352
:102AB0009C93FE01EB5AFF4F808191810197F1F7C2
:102AC000FE01EB5AFF4F9183808381E00E946206F2
:102AD00083E060E00E94F00788E890E00E943207FF
:102AE00082E060E041E00E94A10AFE01EF5AFF4F40
:102AF00080E090E8ABE3B5E480839183A283B38365
:102B00008E01035B1F4FFE01EF5AFF4F6081718101
:102B10008281938120E030E04AE755E40E941F0261
:102B2000DC01CB01F80180839183A283B383FE0192
:102B3000E35BFF4F608171818281938120E030E00F
:102B400040E85FE30E947903882344F4FE01E55BDB
:102B5000FF4F81E090E09183808364C0FE01E35BDE
:102B6000FF4F608171818281938120E03FEF4FE7C9
:102B700057E40E94190318160CF043C0FE01EF5AE7
:102B8000FF4F608171818281938120E030E040E2DB
:102B900051E40E941F02DC01CB018E01055B1F4F37
:102BA000BC01CD010E944900DC01CB01F8019183F9
:102BB00080831FC0FE01E75BFF4F80E991E09183B6
:102BC0008083FE01E75BFF4F808191810197F1F7E0
:102BD000FE01E75BFF4F91838083DE01A55BBF4F62
:102BE000FE01E55BFF4F80819181019711969C93D7
:102BF0008E93FE01E55BFF4F808191810097D1F6B6
:102C000028C08E01055B1F4FFE01E35BFF4F608113
:102C10007181828193810E944900DC01CB01F8011E
:102C200091838083DE01A95BBF4FFE01E55BFF4F0F
:102C30008081918111969C938E93FE01E95BFF4FF9
:102C4000808191810197F1F7FE01E95BFF4F91834C
:102C50008083FE01EF57FF4F11821082FE01E05882
:102C6000FF4F1082FE01E158FF4F1082E0C082E06A
:102C700060E040E00E94A10A81E00E94620680E9D3
:102C800090E00E943207FE01ED5BFF4F80E090E88C
:102C9000A9E8B4E480839183A283B3838E01015CAD
:102CA0001F4FFE01ED5BFF4F608171818281938137
:102CB00020E030E04AE755E40E941F02DC01CB012E
:102CC000F80180839183A283B383FE01FF96608124
:102CD00071818281938120E030E040E85FE30E94CF
:102CE000790388232CF481E090E09EAF8DAF46C03D
:102CF000FE01FF96608171818281938120E03FEF28
:102D00004FE757E40E941903181664F5FE01ED5BC6
:102D1000FF4F608171818281938120E030E040E249
:102D200051E40E941F02DC01CB01BC01CD010E94D5
:102D30004900DC01CB019EAF8DAF0FC080E991E06F
:102D40009CAF8BAF8BAD9CAD0197F1F79CAF8BAF78
:102D50008DAD9EAD01979EAF8DAF8DAD9EAD0097B1
:102D600069F716C0FE01FF966081718182819381AF
:102D70000E944900DC01CB019EAF8DAF8DAD9EADB1
:102D80009AAF89AF89AD9AAD0197F1F79AAF89AF44
:102D900081E00E946206DE01A158BF4FFE01E158AA
:102DA000FF4F80818F5F8C9384E790E00E94320711
:102DB00081E061E00E94F00782E061E041E00E9472
:102DC000A10A1092EC00FE01EF57FF4F1182108212
:102DD0002EC0FE01ED57FF4F80818A3040F5FE0185
:102DE000ED57FF4F8081882F90E0A0E0B0E0BC015C
:102DF000CD010E946507FE01EF57FF4F8081918151
:102E00009C01220F331FC901880F991F880F991F3A
:102E1000280F391FFE01ED57FF4F8081882F90E06A
:102E2000FE01EF57FF4F820F931F91838083FE01B6
:102E3000E158FF4F8081833009F08BC01092EC0085
:102E4000FE01E058FF4F108282E061E041E00E9405
:102E5000A10A81E00E9462068BE990E00E9432079D
:102E600080E090E8A9E0B5E48DAB9EABAFABB8AF26
:102E70006DA97EA98FA998AD20E030E04AE755E41E
:102E80000E941F02DC01CB0189AB9AABABABBCABA0
:102E900069A97AA98BA99CA920E030E040E85FE30A
:102EA0000E94790388232CF481E090E098AB8FA7EF
:102EB0003FC069A97AA98BA99CA920E03FEF4FE701
:102EC00057E40E94190318164CF56DA97EA98FA925
:102ED00098AD20E030E040E251E40E941F02DC01A6
:102EE000CB01BC01CD010E944900DC01CB0198ABB4
:102EF0008FA70FC080E991E09EA78DA78DA59EA505
:102F00000197F1F79EA78DA78FA598A9019798AB78
:102F10008FA78FA598A9009769F714C069A97AA906
:102F20008BA99CA90E944900DC01CB0198AB8FA71B
:102F30008FA598A99CA78BA78BA59CA50197F1F7B6
:102F40009CA78BA7FE01E158FF4F108281E00E94F1
:102F50006206FE01E058FF4F8081813009F472CB98
:102F60008091EC00882309F092C081E00E94620603
:102F700085E060E00E94F0078CEA90E00E94320752
:102F800080E090EEAAE8B4E48FA398A7A9A7BAA717
:102F90006FA178A589A59AA520E030E04AE755E41D
:102FA0000E941F02DC01CB018BA39CA3ADA3BEA397
:102FB0006BA17CA18DA19EA120E030E040E85FE301
:102FC0000E94790388232CF481E090E09AA389A3DE
:102FD0003FC06BA17CA18DA19EA120E03FEF4FE7F8
:102FE00057E40E94190318164CF56FA178A589A51E
:102FF0009AA520E030E040E251E40E941F02DC018B
:10300000CB01BC01CD010E944900DC01CB019AA398
:1030100089A30FC080E991E098A38F8F8F8D98A12D
:103020000197F1F798A38F8F89A19AA101979AA38D
:1030300089A389A19AA1009769F714C06BA17CA10B
:103040008DA19EA10E944900DC01CB019AA389A316
:1030500089A19AA19E8F8D8F8D8D9E8D0197F1F7FD
:103060009E8F8D8F0E94391281E00E946206FE01C0
:10307000EF57FF4F1182108282E061E040E00E9432
:10308000A10AFE01E058FF4F81E08083C7CA109279
:10309000EC0082E00E94B80E81E00E94620683E0AC
:1030A00060E00E94F00782EB90E00E94320780917E
:1030B000EC00882309F0EFC00E945B0880E090E4F8
:1030C000ACE9B5E4898F9A8FAB8FBC8F698D7A8D0F
:1030D0008B8D9C8D20E030E04AE755E40E941F0272
:1030E000DC01CB018D8B9E8BAF8BB88F6D897E8978
:1030F0008F89988D20E030E040E85FE30E947903FB
:1031000088232CF481E090E09C8B8B8B3FC06D89F1
:103110007E898F89988D20E03FEF4FE757E40E942A
:10312000190318164CF5698D7A8D8B8D9C8D20E0D6
:1031300030E040E251E40E941F02DC01CB01BC01FF
:10314000CD010E944900DC01CB019C8B8B8B0FC011
:1031500080E991E09A8B898B89899A890197F1F7A7
:103160009A8B898B8B899C8901979C8B8B8B8B8904
:103170009C89009769F714C06D897E898F89988D25
:103180000E944900DC01CB019C8B8B8B8B899C8935
:10319000988B8F878F8598890197F1F7988B8F8708
:1031A0000E947E090E94EA0880E090E4ACE9B5E460
:1031B0008B879C87AD87BE876B857C858D859E853B
:1031C00020E030E04AE755E40E941F02DC01CB0119
:1031D0008F839887A987BA876F81788589859A8533
:1031E00020E030E040E85FE30E94790388232CF47C
:1031F00081E090E09E838D833FC06F8178858985D3
:103200009A8520E03FEF4FE757E40E941903181614
:103210004CF56B857C858D859E8520E030E040E215
:1032200051E40E941F02DC01CB01BC01CD010E94D0
:103230004900DC01CB019E838D830FC080E991E0C2
:103240009C838B838B819C810197F1F79C838B837B
:103250008D819E8101979E838D838D819E810097B4
:1032600069F714C06F81788589859A850E94490025
:10327000DC01CB019E838D838D819E819A8389831E
:1032800089819A810197F1F79A838983FE01EF572B
:10329000FF4F118210820E947E0982E060E040E0D0
:1032A0000E94A10A1092EC0081E00E94620685E073
:1032B00060E00E94F0070E94391281E00E946206DD
:1032C000FE01E058FF4F81E08083A8C9DF93CF93D0
:1032D000CDB7DEB781E08093EC00CF91DF91089508
:1032E000A1E21A2EAA1BBB1BFD010DC0AA1FBB1F0A
:1032F000EE1FFF1FA217B307E407F50720F0A21B7C
:10330000B30BE40BF50B661F771F881F991F1A94E8
:1033100069F760957095809590959B01AC01BD0112
:10332000CF01089597FB092E05260ED057FD04D036
:10333000D7DF0AD0001C38F4509540953095219580
:103340003F4F4F4F5F4F0895F6F7909580957095DA
:1033500061957F4F8F4F9F4F08952F923F924F92CD
:103360005F926F927F928F929F92AF92BF92CF9215
:10337000DF92EF92FF920F931F93CF93DF93CDB71E
:10338000DEB7CA1BDB0B0FB6F894DEBF0FBECDBF96
:1033900009942A88398848885F846E847D848C8467
:1033A0009B84AA84B984C884DF80EE80FD800C8170
:1033B0001B81AA81B981CE0FD11D0FB6F894DEBF53
:0C33C0000FBECDBFED010895F894FFCFC3
:1033CC0057656C636F6D65202000476F6F642062DA
:1033DC0079652000456E7465722070617373776F28
:1033EC0072643A002A2A2A00436F72726563740071
:1033FC0054727920416761696E2100496E76616C67
:10340C0069642070617373776F726400436C6F73BF
:10341C00650053797374656D204F6E0000000000D9
:10342C00000000000E0E040E15040E11000E0E040A
:10343C000F14040A01000708092F0405067801027D
:06344C00032D43003D2B9F
:00000001FF
